:020000040000FA
:060000000200E90211D923
:03000B0002127965
:030013000212884E
:03001B0002129737
:030023000212A620
:03002B000212B509
:0300330002500375
:03003B000212C4EA
:030043000212D3D3
:03004B000211F9A6
:030053000212E2B4
:030063000212275F
:03006B000250A898
:030073000212F185
:03007B000213006D
:030083000211A3C4
:10008B0002130F00000080FB1200F8B900030200FE
:10009B00E3E479217812B800028004F709D8FCE474
:1000AB0090F3FF78AC79068002F0A3D8FCD9FA90D4
:1000BB00F9AAAA82AB839000FB78AA79028015E497
:1000CB0093A3AC82AD838A828B83F0A3AA82AB838A
:1000DB008C828D83D8E9D9E7120A2512008E75D050
:1000EB000075814F7510FF7511F302009379012292
:1000FB0087D6120000C201000000000001000000C2
:10010B00F1490200FFFFFFFF0032506E0E278CFFFC
:10011B0000000001000000000000000000000000D3
:10012B0000000000000000000000000000000000C4
:10013B0000000000000000000000000000000000B4
:10014B00B242873F183B0543FC34B4407856341019
:10015B00020101010008070605040302010055AA6C
:10016B0055AA55AA55AA556CDC0200A402470347B1
:10017B0003470347034F03200700CABA5EBA1109AE
:10018B000300CA000500CA000000010001000000C6
:10019B000000FFFFFFFF0001804020100884422178
:1001AB009048A45229140A85C261B058ACD66B355D
:1001BB009ACD6633994CA653A9542A95CAE5F27980
:1001CB003C9ECF67B3D96CB65B2D160B058241A055
:1001DB005028944AA5D269341A8D462391C8E472EB
:1001EB00391C8EC7E3F1F8FCFEFF7F3F1F0F07831F
:1001FB00C1E070389CCEE7F3F97CBEDF6F379B4DC7
:10020B0026138944221188C4623198CCE673B95CF9
:10021B00AED7EB75BADD6EB7DB6D361B0D06038102
:10022B00C06030188CC663B1D8ECF67B3D1E8F478F
:10023B00A3D1E8F47ABD5EAF57AB55AAD5EAF5FA70
:10024B00FD7EBF5F2F178B45A251A8D46AB5DAED9F
:10025B00763B1D0E87C3E1F078BCDEEF77BB5D2EDE
:10026B0097CB65B2592C964B25924924120904025F
:10027B000180402010088442219048A45229140A7E
:10028B0085C261B058ACD66B359ACD6633994CA606
:10029B0053A9542A95CAE5013C1201100102000032
:1002AB00205104A6160900010203010902430002B2
:1002BB00010080190904000001020201000524005D
:1002CB00100104240202052406000105240100018B
:1002DB000705820340004009040100020A000000E8
:1002EB0007058402400001070504024000010403D6
:1002FB00090424035400650078006100730020009A
:10030B0049006E0073007400720075006D0065008B
:10031B006E00740073001E03430043003100310074
:10032B0031003100200055005300420020004300F3
:10033B00440043000803300030003100BF020000CE
:10034B00E2020000E066701008A3E066700A08A3E2
:10035B00E066700408A3E06622C3E09608A3E0966B
:10036B0008A3E09608A3E09622BB0102E722C08215
:10037B00C08389828A83BB0003E08002E493D0832D
:10038B00D08222BB000EC082C0838A838982F0D0C8
:10039B0083D08222BB0101F722080808EAC0E0EBF8
:1003AB00C0E086F0E7A4FA180986F0E7A42AFA1849
:1003BB000986F0E7A42AFA180986F0E7A42AFA19A5
:1003CB0086F0E7A4FBE5F02AFA190886F0E7A42BE0
:1003DB00FBE5F03AFA190886F0E7A42BFBE5F03AB7
:1003EB00FA18180986F0E7A4C5F02BFBE43AFA19C2
:1003FB0008E7C5F0C6A426F6E5F03BFBE43AFA188D
:10040B0086F0E7A4F6E5F00826F6E43B08F6E43AB6
:10041B0008F6D0E0FBD0E0FA22E4CFC0E0E4CEC097
:10042B00E0E4CDC0E0E4CCC0E075F020C3E633F6E9
:10043B0008E633F608E633F608E633F6181818EC38
:10044B0033FCED33FDEE33FEEF33FFC3EC9709EDD9
:10045B009709EE9709EF97191919400FFFEC97FCC5
:10046B0009ED97FD09EE97FE191906D5F0BEECF7CD
:10047B0009EDF709EEF709EFF7191919D0E0FCD0E0
:10048B00E0FDD0E0FED0E0FF226016080808C6C3EE
:10049B0013C618C613C618C613C618C613C6D5E09E
:1004AB00EA227009080808226016181818C6C33308
:1004BB00C608C633C608C633C608C633C6D5E0EA77
:1004CB0022E627F60809E637F60809E637F60809A3
:1004DB00E637F622E026F608A3E036F608A3E03668
:1004EB00F608A3E036F622E056F608A3E056F60827
:1004FB00A3E056F608A3E056F622E647F60809E60F
:10050B0047F60809E647F60809E647F622E046F003
:10051B0008A3E046F008A3E046F008A3E046F0226B
:10052B00E0F608A3E0F608A3E0F608A3E0F622E65F
:10053B00F008A3E6F008A3E6F008A3E6F022CAC091
:10054B00E0E6F0A308DAFAD0E0FA22CAC0E0E0A3B2
:10055B00C582CCC582C583CDC583F0A3C582CCC56E
:10056B0082C583CDC583DAE6D0E0CA22C3E498F80E
:10057B00E499F91205B88026C3E49AFAE49BFBE9E7
:10058B0020E7E91205B8E498F8E499F922C3E49856
:10059B00F8E499F91205B8E498F8E499F9C3E49AE8
:1005AB00FAE49BFB22EB20E7CFE920E7E0B9001050
:1005BB00BB0008E88AF084F8AAF022E4FBC8FA2210
:1005CB00EB70227B10C833C8C933C9335007C39AA9
:1005DB00C3DBF280069A50012ADBEAC833F4C8C9A0
:1005EB0033F4C9FA2275F008E4C833C8C933C933E8
:1005FB00C99AC99B5004C92AC93BD5F0ECFBC83337
:10060B00F4C8E4C9FA22600C08C6C313C618C61393
:10061B00C6D5E0F422700422600D18C6C333C60899
:10062B00C633C6D5E0F41822251010AF08F51040DC
:10063B000215118008F51040021511D2AF22C0D05F
:10064B00251010AF08F510500205118008F5105059
:10065B00020511D2AFD0D0222510F58210AF08F5CC
:10066B0010400215118008F51040021511D2AF850C
:10067B001183222510F582E43511F58322E47325CD
:10068B0010C582C0E0E51134FFC583C0E0E510C39F
:10069B00958224F9F8E4C5A8858311858210C5A835
:1006AB00E8CEF0A3E520F0A37808E608F0A3DEFA85
:1006BB00EFF0A3E58124FBF8E608F0A3E608F0A32E
:1006CB000808E608F0A3E608F0A315811581D0E031
:1006DB00FED0E0F815811581E8C0E0EEC0E0228580
:1006EB001183851082E0A3FEE0A3F5207808E0A338
:1006FB00F608DFFAE0A3FFE0A3C0E0E0A3C0E0E070
:10070B00A3C0E0E0A3C0E0E4C5A8858210858311F7
:10071B00C5A8D083D08222C0D02510C582C0E0E509
:10072B001134FFC583C0E0E510C3958224F310AFED
:10073B00088583118582108008858311858210D2EC
:10074B00AFC8F0A3E9F0A3EAF0A3EBF0A37908E7B5
:10075B0009F0A3D8FAECF0A3EDF0A3EEF0A3EFF0C1
:10076B00A3D0E0F0A3D0E0F0A3D0E0F0A3E520F01D
:10077B00A3E5F0F0A322851183851082E0C0E0A3EE
:10078B00E0F9A3E0FAA3E0FBA37808E0F608A3DF07
:10079B00FAE0FCA3E0FDA3E0FEA3E0FFA3E0C0E0D2
:1007AB00A3E0C0E0A3E0F5D0A3E0F520A3E0A3F520
:1007BB00F0E4C5A8858311858210C5A8D082D083AB
:1007CB00D0E0F8D0E0327403800474028000C0E003
:1007DB00F404120663D0E0120549227403800474FA
:1007EB00028000CCC0E0EDC0E0E510C39CCCAD11A5
:1007FB0050011D10AF068C108D1180068C108D11C1
:10080B00D2AF120556D0E0FDD0E0FC22D083D082CF
:10081B00C5F0E493A3C5F0C395F0F5F0E493A3C33F
:10082B0095F04005E5F0048001E475F002A4258203
:10083B00F582E5F03583F583E493A3C0E0E493C040
:10084B00E022D083D082CCC0E0E493A360061208F0
:10085B00771470FAE493A360061208961470FAD01A
:10086B00E0FCE493A3C0E0E493C0E022C0E0E49397
:10087B00A3D39C5010E493A3C39C400AD0E0D0E0D8
:10088B00D0E002086AA3A3A3D0E022C0E0E493A3C4
:10089B006C7009D0E0D0E0D0E002086AA3A3D0E0EE
:1008AB002253CBEFC2D843CB0475F00CEAA4F5CDA1
:1008BB0074FC55CB4402F5CB43CB10A2D850FC5360
:1008CB00CBEFC2D822C082C08353A8C0E5A853B8CF
:1008DB00F0E5B8539AC2E59A7422C0E0740755C686
:1008EB00F8D0E0B800028004C313D8FCF5AB7475E4
:1008FB0090FC00F074AE90FC01F0740290FC02F0DE
:10090B00E490FC03F090FC04F0747490FC05F0741C
:10091B00FF90FC06F074F590FC07F074AF90FC08A8
:10092B00F0E490FC09F090FC0AF0747490FC0BF06E
:10093B0074FF90FC0CF074F590FC0DF074AF90FC10
:10094B000EF0E490FC0FF090FC10F074E590FC11AD
:10095B00F074AE90FC12F0745490FC13F074409051
:10096B00FC14F0747090FC15F074FA90FC16F07493
:10097B002290FC17F0740190F3FFF0D083D0822209
:10098B00C082C0838A828B83E493F9D083D0822286
:10099B00C082C0838A828B83E493F9A3E4932400FF
:1009AB00FAE439FBD083D0822274F712068AECFE6C
:1009BB00EDFF740912067EE0FCA3E0FD74326C704F
:1009CB000374576D600479008045C2AFE5AEA2E7B2
:1009DB0040FA8A088B0974097808120611E508F5A4
:1009EB00ADEAFCEBC313EC13F5ACEF90FC06F0EEA9
:1009FB0090FC0CF012FC00D2AFE9601112099B8A3B
:100A0B00088B09EE65087003EF650970B979017FF2
:100A1B00020206EAD2AF22C2AF22750C00750D009E
:100A2B007E0043FE01D29043FE10C29443FD3FE58E
:100A3B00FD43FEE0E5FE43FF19E5FF53BEF8E5BEBF
:100A4B0000746055BE60FA780079008008E82401D4
:100A5B0008E93400F9C3E89420E9944E40EF53C6FB
:100A6B00BF53C6C0E5C643C638E5C6746055BE6005
:100A7B00FA780079008008E8240108E93400F9C30A
:100A8B00E89420E9944E40EF90F9AA780812052BD0
:100A9B00AA08AB09AC0AAD0B12647374FF90F4187F
:100AAB00F07AF07B7F12098BE9700C7AF27B7F1264
:100ABB00098BE990F412F090F412E0C3941F4008F4
:100ACB00E0C394E25002E4F043B933E5B943A92300
:100ADB00E5A990F9AE780812052BAA08AB09AC0A68
:100AEB00AD0B12593B800F125993E50C2401F50CF9
:100AFB00E50D3400F50DC3E50C9420E50D944E4047
:100B0B00E6C29075EC4475ED0475EBDED2BCD2AF4A
:100B1B00800E12115A740590F400F0E490F404F076
:100B2B0090F404E0600C90F401E0700690F403E0A4
:100B3B0060E090F402E0602990F60EE06008EE7041
:100B4B000553EBEF7E0190F608E060D412664FEE92
:100B5B006009E490F60EF0FE43EB10E490F608808B
:100B6B00BE90F405E0603490F403E0702ED290E474
:100B7B0090F405F012111D740390F400F0740190C1
:100B8B00F401F012131E740190F400F0E490F401E0
:100B9B00F074FF90F418F0C290808590F406E0603A
:100BAB003D90F401E07037D290E490F406F0125BC4
:100BBB0019740A90F400F0740190F403F01260D0F1
:100BCB0090F67AE0A2E25004740B8002740C90F45D
:100BDB0000F0E490F403F074FF90F67C80B890F48E
:100BEB000DE07003020B2B90F40FE06003020B2B54
:100BFB0090F40EE01208170102190C0C0C110C16D4
:100C0B000C12434B800812486F80031248957401F5
:100C1B0090F40F020B2A74F112068A90F653E064DB
:100C2B00FF600302111890F654E012084D001900F2
:100C3B00A20C01A80C02BD0C03E10C04460D058DA2
:100C4B000D06DA0C07B10D08D10D09900E0A970DA0
:100C5B0020870C310D0E32480E33580E40990E4141
:100C6B00D20E46C60E47F00E48D80E49E90E705804
:100C7B0010718F1072C01073A8100C11741290F6B3
:100C8B0059F0743490F658F0745690F657F0747817
:100C9B0090F656F002110C90F400E080F3121187DD
:100CAB00E490F402F090F401F090F403F090F4006F
:100CBB0080E190F401E0600790F417E0D2E5F0904A
:100CCB00F402E0600302110C740190F40480C4126E
:100CDB001187740480D790F659E0F50875090075F3
:100CEB000A00750B00741878081204AD90F658E0E2
:100CFB00F50C750D00750E00750F007410780C1245
:100D0B0004AD7808790C1204CC90F657E0F50C750D
:100D1B000E007408780C1204AD7808790C1204CC10
:100D2B0090F656E0F50C750D007808790C1204CC92
:100D3B0090F98A780812053A02110C90F98A780C0E
:100D4B0012052B850C08850D09850E0A850F0B7472
:100D5B00187808120494E50890F659F0850C08856C
:100D6B000D09850E0AF50B74107808120494E5082A
:100D7B0090F658F0850D09E50990F657F0E50C0251
:100D8B000C9B90F656E090FB52020C9E90F656E0B0
:100D9B0090F9A5F090F658E0F990F657E090F9A687
:100DAB00F0A3E9020C9E90F402E06003121187900D
:100DBB00F401E0600302110C740290F400F0740172
:100DCB0090F405020C9E90F417E0A2E4502F90F4DF
:100DDB001BE090F659F090F41AE090F658F090F46E
:100DEB0019E090F657F090F418E090F656F074FF77
:100DFB0090F418F090F417E0C2E4020C9E74FF021A
:100E0B000C9B90F401E0700302110C7A00801F8A96
:100E1B0082A882E82456F582E434F6F583E0C0E03C
:100E2B00E82418F582E434F4F583D0E0F00AEAC341
:100E3B00941340DB90F417E0D2E6020C9E90F4077B
:100E4B00E090F656F0740490F655020C9E90F40761
:100E5B00E0602E7A00801F8A82A882E82418F5822F
:100E6B00E434F4F583E0C0E0E82456F582E434F68C
:100E7B00F583D0E0F00AEAC3941340DBE490F40767
:100E8B00F0741680C290F417E0D2E5020C9E90F439
:100E9B0002E0600312118790F401E0600790F417F1
:100EAB00E0D2E5F090F403E0600302110C740990BA
:100EBB00F400F0740190F406020C9E90F67AE0D2E6
:100ECB00E5F0C29002110C90F977020CA590F40397
:100EDB00E0600690F67B020CA57480020C9B74F705
:100EEB0090F65680A6740290F67BF090F773E06450
:100EFB00016003020FD6E490F40AF090F655E0245B
:100F0B00FB90F409F090F656E090F40BF090F65746
:100F1B00E0F50890F40BE07035E50890F77AF09067
:100F2B00F658E090F77BF0F9E50890F983F0A3E928
:100F3B00F090F983E090FA41F090F984E090FA4256
:100F4B00F0740490F773F0E490F408020C9EE5083B
:100F5B0090F40CF090F40BE06401700474018002C7
:100F6B00740290F779F090F40CE0240590F774F08C
:100F7B007A00801F8A82A882E82458F582E434F62E
:100F8B00F583E0C0E0E8247AF582E434F7F583D00A
:100F9B00E0F00AEAC0E090F409E0FBD0E0C39B402C
:100FAB00D3740290F773F090F409E090F408F0908A
:100FBB00F409E090F40AF0E0C0E090F40CE0FAD011
:100FCB00E0C39A500302110C020F4CE06402600361
:100FDB0002110C90F655E024FD90F409F07A008094
:100FEB002B8A82A882E82456F582E434F6F583E056
:100FFB00C0E090F408E0FCE82CF8E43400F9E824B5
:10100B007AF582E934F7F583D0E0F00AEAC0E09094
:10101B00F409E0FBD0E0C39B40C7E0FA90F408E092
:10102B002AF090F409E0FA90F40AE02AF090F40820
:10103B00E0C394F7509290F40AE0C0E090F40CE017
:10104B00FAD0E0C39A500302110C020FD390F6575B
:10105B00E0F990F656E0F874AB68700374AB697006
:10106B001C740190F40DF0E490F40EF0740190F404
:10107B000FF0E490F402F090F401020C9EE490F473
:10108B000D020C9E90F40DE0607790F410E4F0A349
:10109B00F090F40FF090F40EE004020C9E90F40D1F
:1010AB00E0605E90F410E090F656F090F411E09052
:1010BB00F657020C9E90F40DE0604690F656E0F564
:1010CB000890F657E0FA90F658E0F9EAFEE9FF12BD
:1010DB0008D0EEFAEFFB12098BE964FF7023750A57
:1010EB0032750B57780A1207D57900AB0874FF24B9
:1010FB0000FCE43BFDEEFAEFFB1209B4740212069E
:10110B0049740190F677F0740690F654F07F08025C
:10111B0006EAC082C08375C6B074D390DF00F0744A
:10112B009190DF01F0740490DF03F0E490DF05F0A1
:10113B0090DF06F0740790DF12F0E490DF2FF09051
:10114B00DF30F090DF31F0759100D083D08222C078
:10115B0082C08375C6B8439190E59175E25575E5EC
:10116B004475E402D2B912686390F412E090DF0880
:10117B00F0740190F402F0D083D08222C082C0833D
:10118B0012645EC2B975E40075E255124899E49099
:10119B00F402F0D083D08222C0E074F212072290C6
:1011AB00F402E060051263BD801F90F401E060055E
:1011BB00121793801490F40DE0600512483D8009DE
:1011CB0090F403E06003125C2C7F01020781C0E006
:1011DB0074F212072290F402E0600512636B80092F
:1011EB0090F40DE060031247307F01020781C0E0ED
:1011FB0074F2120722C2C153E40FE5E490F607E044
:10120B00601590F608E0700F1248C3E97003740183
:10121B00F090F60FE004F07F01020781C0E074F25A
:10122B0012072290F403E0603990F873E0F8A3E022
:10123B00F9E87001E9602B90F871E02401F0A3E06C
:10124B003400F090F871E0687003A3E069701390BC
:10125B00F871E4F0A3F090F873F0A3F0740190F838
:10126B0075F0C2DB1259937F010207810022C0E0A7
:10127B0074F21207221212777F01020781C0E07409
:10128B00F21207221212777F01020781C0E074F27B
:10129B001207221212777F01020781C0E074F2124B
:1012AB0007221212777F01020781C0E074F2120746
:1012BB00221212777F01020781C0E074F21207221B
:1012CB001212777F01020781C0E074F2120722121B
:1012DB0012777F01020781C0E074F212072212120B
:1012EB00777F01020781C0E074F212072212127796
:1012FB007F01020781C0E074F21207221212777F7E
:10130B0001020781C0E074F21207221212777F01EB
:10131B0002078174F112068A74FA12063390F9B23D
:10132B00780812052B740190F417F07AFD7B1412D8
:10133B0027B97402C0E0740112067ED0E0F0AC82D3
:10134B00AD837A0A7903122AA0C290805390F414C9
:10135B00E0704D740212067E780812053A74021280
:10136B00067EC082C08390F9B6780812052BD08315
:10137B00D08278081204DF740212067EC082C0830A
:10138B0090F9BA780C12052BD083D082780C12030B
:10139B0064400D639001E59090F9B2780812052B2B
:1013AB0090F416E0603190F414E0702B7A137BF418
:1013BB001227E6E970F6740290F417F0D29090F4CD
:1013CB0014E004F0A2AFE492E0FAC2AF90F416E09E
:1013DB0014F0EAA2E092AF90F415E070030214C887
:1013EB00851082851183AC82AD837A387BF490F4BF
:1013FB0013E0F9122A36E960030214C885108285BE
:10140B001183E064047029639001E590750C0475F9
:10141B000D00780C1207D57C387DF47A187BF4120A
:10142B006958740212064990F417E0D2E40214C70B
:10143B00E064026008E0641360030214C863900167
:10144B00E59090F438E01208170102C8145E14936B
:10145B0014931490F417E0A2E65008E0C2E6F0747F
:10146B0013800E740190F418F0745590F419F07405
:10147B0002851082851183F0E0FC7A187BF490F4DE
:10148B0013E0F912285C803590F407E0702F7A0096
:10149B00801F8A82A882E82438F582E434F4F5832D
:1014AB00E0C0E0E82418F582E434F4F583D0E0F0F2
:1014BB000AEAC3941340DB740190F407F090F4171D
:1014CB00E0A2E54003021358539AFE75910075E9AB
:1014DB0000E490F413F090F414F090F416F090F400
:1014EB0015F090F5A1F0C29074061206497F080220
:1014FB0006EAC082C083E9600590F415800390F47E
:10150B0016E004F07900D083D0822274F712068A99
:10151B0075082175090078081207D57C007D007AC3
:10152B00597BF4126A3F740212064990DF36E0547D
:10153B00EF64016004C2AF80FE90DF37E0C3940319
:10154B005004C2AF80FE53BEFBE5BEA2E650FA5379
:10155B00C6BF43BE0474F4F5D575D480743C90DFDC
:10156B0013F0741490DF14F0741E90DF02F0740506
:10157B0090DF04F0745090DF2EF0740990DF25F0AB
:10158B0090DF07F090F412E090DF08F0742490DF06
:10159B0009F0743A90DF0AF074EE90DF0BF0746B85
:1015AB0090DF0CF074A390DF0DF0741390DF0EF04E
:1015BB00742390DF0FF0741190DF10F0744390DF01
:1015CB0011F0741D90DF15F0741C90DF16F074C7CA
:1015DB0090DF17F0E490DF18F074B090DF19F0741F
:1015EB00B690DF1AF0741090DF1BF074EA90DF1CDA
:1015FB00F0742A90DF1DF0E490DF1EF0741F90DF73
:10160B001FF0748190DF23F0743590DF24F07402A7
:10161B0090F458F07900121B8D7E007F0075E1026B
:10162B0075081475090590DF3CE0545070237A401F
:10163B007B001219A5E50824C0F508E50934FFF570
:10164B0009C3E5089401E5099400A2D265D0335093
:10165B00D57A008013EEC333FEEF33FF90DF3AE011
:10166B00A2E0E492E04EFE0AEAC3941040E77480D5
:10167B004EF5BCEFF5BC12196090F47C7436F0A3F8
:10168B00E4F090F47E74E2F0A37404F0439A01D278
:10169B00AF7F020206EA74F712068AEAFEEBFF89B5
:1016AB000975080090F458E064017004C2AF80FE25
:1016BB00121960EF90F480F0EE90F481F074DF90EB
:1016CB00F482F074D990F483F0742090F484F07465
:1016DB002190F485F0741390F486F0744190F487A4
:1016EB00F0E509701143D60175E103E5E9A2E45079
:1016FB00FA53E9EF8068740165096004C2AF80FE9C
:10170B007509048008121960121ACA150943D6010B
:10171B0075E10290DF3BE0640D70F87E147F05905D
:10172B00DF3CE05450701D7A407B001219A5EE246B
:10173B00C0FEEF34FFFFC3EE9401EF9400A2D2651D
:10174B00D03350DB75E10390DF3BE0640D6008E5BF
:10175B00E9A2E450FA809AE50970AA7508011219FA
:10176B006090F458E0640370031218D7A9087F0245
:10177B000206EAC082C08390F459EAFCEBFD7421A7
:10178B00120556D083D0822274F712068A90F45831
:10179B00E064036004C2AF80FEE5E9A2E45035E5E6
:1017AB00E9A2E6502F53E9EF53E9BF539BFCE59BAE
:1017BB0012196075081F75090078081207D57C008F
:1017CB007D007A597BF4126A3F7402120649121893
:1017DB00D702186A53E9EF539BFCE59B750802751A
:1017EB00090078081207D590F459E0042459FCE459
:1017FB0034F4FD7A787BF41269A07402120649E086
:10180B00FA90F479E0A2E7503B8A0874012508F8B6
:10181B00E43400F9E89420E99400C365D0335024F4
:10182B00EAC3940B401E7A5A7BF4121BF5E9701431
:10183B0090F478E0F9121B38E9F090F479E0C2E704
:10184B00F0122D5E75081F78081207D57C007D00FD
:10185B007A597BF4126A3F740212064943D6017F10
:10186B00020206EA74F812068A90F458E0640160EA
:10187B0013A2AFE492E0FEC2AF1219857401F0EE31
:10188B00A2E092AF7F010206EAC082C083E5C6A246
:10189B00E65004C2AF80FE90F458E06401702274ED
:1018AB00EA90DF1CF0742A90DF1DF0E490DF1EF04D
:1018BB00740290F458F075E10490DF3BE064017022
:1018CB00F8D083D0822243B404A9BC2274F7120649
:1018DB008A74DF90F480F074D990F481F074F490F2
:1018EB00F482F0745990F483F0748090F484F07463
:1018FB002190F485F0741390F486F0741190F487B2
:10190B00F075D68175081F75090078081207D57C0C
:10191B00007D007A597BF4126A3F74021206494328
:10192B00D601539BFCE59B53E9EF75E10243911004
:10193B007F020206EAC082C08390F458E064017013
:10194B0004C2AF80FEE0640360067403F01218D784
:10195B00D083D08222C082C0835391EF75E1049073
:10196B00DF3BE0640170F875D68153D1FE539BFCCD
:10197B00E59B53E9EFD083D08222C082C08390F4E1
:10198B0058E064017004C2AF80FEE064037006127D
:10199B0019607402F0D083D0822274F712068A8AFF
:1019AB00088B0974047808120611AE08AF09EA70A7
:1019BB0001EB6028A2AFE492E0F508C2AF7A107B8E
:1019CB00001208ACE508A2E092AFEEF8EFF974FF55
:1019DB00281E74FF39FFE87001E970D87F020206F8
:1019EB00EA74F712068A8A088B09740478081206BF
:1019FB0011AE08AF09EA7001EB602EA2AFE492E0E2
:101A0B00F508C2AF7A107B001208ACE508A2E09291
:101A1B00AF90F47AE07012EEF8EFF974FF281E74B1
:101A2B00FF39FFE87001E970D27F020206EA74F811
:101A3B0012068AEAFEEB800E7AF47B011219A5EEF0
:101A4B0024FF1EEF34FFFFEE7001EF70EB7F0102FE
:101A5B0006EA74F812068A90F47CE0FEA3E0FFA27B
:101A6B00AFE492E0FAC2AF740190F47BF0EAA2E02B
:101A7B0092AF8008EE24FF1EEF34FFFFEE7001EFF4
:101A8B00600D7AF47B011219EC90F47AE060E5A218
:101A9B00AFE492E0FAC2AFE490F47AF090F47BF00A
:101AAB00EAA2E092AF7F010206EAC082C08390F403
:101ABB007BE06006740190F47AF0D083D0822274BC
:101ACB00F812068A1218D1E9540F04FF7E00800C1D
:101ADB0090F47EE0FAA3E0FB1219A50EEEC39F4033
:101AEB00EF7F010206EA74F812068A90F458E0645C
:101AFB00036004C2AF80FE7E147F0590DF3CE05490
:101B0B0050701D7A407B001219A5EE24C0FEEF34F5
:101B1B00FFFFC3EE9401EF9400A2D265D03350DBEC
:101B2B0090DF3AE0F9121B387F010206EAC008C0C9
:101B3B0009E9C39480E94019F879FF7A027B001216
:101B4B0005B08808890974B72508F874FF35098032
:101B5B000BC313F874B728F874FF3400F9C3E89477
:101B6B0080E994FFA2D265D03350027880E8F9D097
:101B7B0009D00822C082C08390F458E0F9D083D0FA
:101B8B00822274F712068A8908E9C394044004C2BE
:101B9B00AF80FE121960E50824C2F582E434F9F532
:101BAB0083E090DF06F090F458E0640370031218A2
:101BBB00D77F020206EA74F712068A8908E9C394F2
:101BCB00034004C2AF80FE121960E50824C6F582FB
:101BDB00E434F9F583E090DF2EF090F458E06403E1
:101BEB0070031218D77F020206EA74F812068A9065
:101BFB00F488E07004790080487E007D007C0080D2
:101C0B002E8C82A882EA28F582EB3400F583E0FF64
:101C1B00E824C9F582E434F9F583E06F70010EE82E
:101C2B0024BEF582E434F9F583E06F70010D0CEC02
:101C3B00C3940440CC74046D60BB74046E60B679BD
:101C4B00017F010206EA74F712068AEAFEEBFF75C2
:101C5B00082C75090078081207D57C007D007ACE18
:101C6B007BF9126A3F7402120649740290F9CEF0A6
:101C7B00743D90F9CFF0742090F9D0F0740190F985
:101C8B00D1F01234FFEEFAEFFB122C0112244112A9
:101C9B0034FB124232EEFAEFFB1237D512408712A9
:101CAB003B5F12430490F9EEE070347402F074035E
:101CBB0090F9EFF0743F90F9F7F090F9F8F074FFAA
:101CCB0090F9F9F075080478081207D5123599EADE
:101CDB00FCEBFD7AF17BF912695874021206497913
:101CEB00007F020206EAC082C0837B0080010BEBFF
:101CFB00C394025014EB75F00CA424E2F582E5F0CA
:101D0B0034F9F583E0640260E574026B70067A00C7
:101D1B007B00801AEB75F00CA424E2F582E5F0341D
:101D2B00F9F583AA82AB83121D3EAA82AB83D083C3
:101D3B00D08222C082C08374FF120633E48A828B66
:101D4B0083A3A3A3A3A3A3A3A3A3A3F074028A8235
:101D5B008B83F090F9D1E0C0E0EA240BF582EB34F1
:101D6B0000F583D0E0F090F9D1E004F0E0F960F6F3
:101D7B0074FF6960F1851082851183AA82AB83128F
:101D8B002284E970E17401120649D083D08222C00B
:101D9B0082C083E48A828B83F0D083D08222C0827C
:101DAB00C08374FF120633851082851183AA82AB20
:101DBB0083122284E96014E075F00CA424E2F5820E
:101DCB00E5F034F9F583E0640260067582007583F3
:101DDB0000AA82AB837401120649D083D08222748D
:101DEB00F312068A8A088B09890A7EE27FF97A0048
:101DFB00800A7A01EE240CFEEF3400FFEA70478E66
:101E0B00828F83E0640270EA750C04750D00780C08
:101E1B001207D5AC08AD09EE2403FAEF3400FB1220
:101E2B0068FF7402120649EA7001EB70C58E828F4F
:101E3B0083A3A3A3A3A3A3A3A3A3A3E0650A70B245
:101E4B00EEFAEFFB80047A007B007F060206EA7A4B
:101E5B00D27BF92274F312068A8A0A8B0B7508005F
:101E6B007509007EE27FF97A00800E8E088F097A61
:101E7B0001EE240CFEEF3400FFEA703D8E828F835F
:101E8B00E064026005E0640170E1750C04750D00FF
:101E9B00780C1207D5E50A2405FCE50B3400FDEEA2
:101EAB002403FAEF3400FB1268FF7402120649EAAE
:101EBB007001EB70BA7900803AE5087002E50960B1
:101ECB00F47401850882850983F0750C04750D0087
:101EDB00780C1207D5E50A2405FCE50B3400FDE56B
:101EEB00082403FAE5093400FB1269587402120640
:101EFB004979017F060206EA74F512068A8A088B75
:101F0B00097EE27FF97A00800A7A01EE240CFEEF5B
:101F1B003400FFEA70418E828F83E0640170EA75B2
:101F2B000A04750B00780A1207D5E5082405FCE5B1
:101F3B00093400FDEE2403FAEF3400FB1268FF7442
:101F4B0002120649EA7001EB70BFEEFAEFFB121DAD
:101F5B003EEEFAEFFB80047A007B007F040206EA78
:101F6B00C082C083E98A828B836001A3A3A3A3A34E
:101F7B00A3A3A3A3A3E0FCEC60078A828B83E0708E
:101F8B000479028008ECC3942040F67900D083D00A
:101F9B00822274F112068A8A0C8B0D8C0E8D0F7EA9
:101FAB00E27FF98A828B83A3A3A3A3A3A3A3A3A3F7
:101FBB00E0543FF509750800800A0508EE240CFE75
:101FCB00EF3400FFE508C3940240030220998E8290
:101FDB008F83E0640270E3A3A3A3A3A3A3A3A3A390
:101FEB00E0650970D5743F6509602B750A04750BA4
:101FFB0000780A1207D5E50C2405FCE50D3400FD2D
:10200B00EE2403FAEF3400FB1268FF740212064948
:10201B00EA7001EB70A4750801EE240BF582EF3426
:10202B0000F583E0850E82850F83F0743F650960B0
:10203B0056E50C240AF582E50D3400F583E0A2E7A2
:10204B0050198E828F83A3A3A3A3A3A3A3A3A3A39C
:10205B00E0F9AA0CAB0D123115802CE0A2E350274E
:10206B00EE2402F8EF3400F988828983E0FAE50C5C
:10207B00240BF582E50D3400F583E06A7006E488E5
:10208B00828983F0750800121AB5A90880027900BD
:10209B007F080206EA74F112068A74FF120633896E
:1020AB00088A0E8B0F7EE27FF9750A01750B00789B
:1020BB000A1207D57C007D00740212067EAA82AB41
:1020CB0083126A3F74021206497A00805D750C0414
:1020DB00750D00780C1207D5E50E2403FCE50F34C3
:1020EB0000FDEE2403FAEF3400FB1268FF740212BA
:1020FB000649EA7001EB70287401C0E0850A8285FD
:10210B000B83E0F8851082851183E58228F8E5833F
:10211B003400F974E028F58274FF39F583D0E0F0D0
:10212B007A01EE240CFEEF3400FFEA7069E50E6EC7
:10213B007003E50F6F60E98E828F83E0640270E0BD
:10214B00EE2409F50AEF3400F50B850A82F583E0DE
:10215B00C3943E50CB7401650860030220D890F9FC
:10216B00CFE0C0E0850A82850B83E0FAD0E0C39A0A
:10217B0050AE7401C0E0E0F8C3E498F8E49400F9C1
:10218B00851082851183E58228F8E58339F9743D42
:10219B0028F582E4808479007A0080027A01EA7063
:1021AB0015851082851183E070F274026508700446
:1021BB0079208002793D74026508701790F9CFE0A1
:1021CB00C399400B90F9D0E0C399501FE9801B795C
:1021DB00008018E9C0E090F9D0E0FAD0E0C39A4053
:1021EB00EE90F9CFE0697003E014F0E9850E82857B
:1021FB000F83A3A3A3A3A3A3A3A3A3F0740112060A
:10220B00497F080206EA74F512068AEAFEEBFF75AF
:10221B0008028C0AEE250AFAEF3400FB740C2AF53F
:10222B0082E43BF583E0A2E750488D08EE2508FADF
:10223B00EF3400FB740C2AF582E43BF583E0697004
:10224B002E75080475090078081207D5123545EA72
:10225B00FCEBFD8E828F83A3AA82AB831268FF7483
:10226B0002120649EA7001EB7005750800800375D0
:10227B000801A9087F040206EA74F812068A7CE2B8
:10228B007DF97E0080090EEC240CFCED3400FDEE94
:10229B00C3940250218C828D83E0640270E8EC249D
:1022AB000BF582ED3400F583E06970DAEE8A828BF0
:1022BB0083F07901800279007F010206EA74F31240
:1022CB00068A8A0C8B0D89097EE27FF975080080DE
:1022DB000A0508EE240CFEEF3400FFE508C3940258
:1022EB0050478E828F83E0640270E6750A04750B8B
:1022FB0000780A1207D5EE2403FCEF3400FDAA0C7C
:10230B00AB0D1268FF7402120649EA7001EB70C143
:10231B008E828F83A3A3A3A3A3A3A3A3A3A3E065ED
:10232B000970AEEEFAEFFB80047A007B007F0602A9
:10233B0006EAE9FB7900EA6B601FEBC39A500EEAE1
:10234B00C394FD4006EBC39403400E0922EBC394E8
:10235B00FD4006EAC3940340F22274F512068AECA0
:10236B00FEEDFF890A890875090078081207D5EA7E
:10237B00FCEBFDEEFAEFFB1269A07402120649E5C5
:10238B000A1208170202BF239923BF23AD238E82A3
:10239B008F83E0F8A3E0F98E828F83E8F0A3E9F056
:1023AB0080128E828F83780812052B8E828F837812
:1023BB000812053A7F040206EA74F512068A74FACB
:1023CB00120633EAFEEBFFECFAEDFBE912081702FB
:1023DB0002E423EA23E4230624EEFCEFFD80388E8F
:1023EB00828F83E0FCA3E0FD851082851183ECF0E6
:1023FB00A3EDF085108285118380188E828F8378F0
:10240B000812052B740212067E780812053A740224
:10241B0012067EAC82AD8389087509007808120715
:10242B00D51269A0740212064974061206497F047C
:10243B000206EA79022274F712068A7508D2750928
:10244B000078081207D57C007D007A897BF4126A2C
:10245B003F740212064975084678081207D57C00AE
:10246B007D007A5B7BF5126A3F74021206497F028C
:10247B000206EA74F512068A7C007D007E007F005E
:10248B00780074016970097A897BF47509068007F5
:10249B007A5B7BF575090274012509F50A880880BA
:1024AB000EEAFEEBFF0508EA2423FAEB3400FBE50A
:1024BB0008C3950950298A828B83E0601B740169DC
:1024CB0070E308E0640460DDA3E0C3950A50D6EA2C
:1024DB00FCEBFDE0F50A80CD74026970C48031EE2F
:1024EB007001EF701EEC7001ED70067A007B0080BE
:1024FB001FECFEEDFF8E828F83A3E0FA122520E501
:10250B000880087401288E828F83A3F0EEFAEFFB0C
:10251B007F040206EAC082C083740169703A78892D
:10252B0079F4A2AFE492E0FDC2AF7B00801F8882FA
:10253B008983E0600FA3EAC0E0E0FCD0E0C39C50CD
:10254B0003E014F00BE82423F8E93400F9EBC3940F
:10255B000640DBEDA2E092AFD083D0822274F11261
:10256B00068A74F61206338A0C8B0D8C09740412CE
:10257B00067EE4F0A3F0851082851183F0A3F0743E
:10258B000212067EE4F0A3F0740169702E7E897F3F
:10259B00F4750E078A828B83E064017052A3E0F915
:1025AB00121DA9851082851183EAF0A3EBF085102B
:1025BB0082851183E07002A3E070077A007B000232
:1025CB0027A0851082851183E0F8A3E0F58388822C
:1025DB00A3A3A3A3A3A3A3A3A3E0F50885108285BC
:1025EB001183E02403F8A3E03400F974088049E078
:1025FB007006A3E0F5088048E0640270BEA3A882D1
:10260B00A983E0240EFAA3E03400FB8A828B83E0DB
:10261B00F50888828983E02405FAA3E03400FB7473
:10262B000812067EEAF0A3EBF088828983E0240F80
:10263B00F8A3E03400F9740212067EE8F0A3E9F087
:10264B007401650970057509018003750903750F20
:10265B0000800FEAA2E092AF050FEE2423FEEF34C9
:10266B0000FFE50FC394064003022796A2AFE49246
:10267B00E0FAC2AF8E828F83E0650970D67404F0E6
:10268B00EAA2E092AFEE240BF582EF3400F583E083
:10269B00543F6508600302278E850C82850D83E00D
:1026AB0064017019743F6508700E85108285118363
:1026BB00E02403F8A3E0800FEE24078008E0640217
:1026CB007012EE2403F8EF3400F9740612067EE85C
:1026DB00F0A3E9F0750A04750B00780A1207D5749C
:1026EB000A12067EE0FCA3E0FD740812067EE0FAF7
:1026FB00A3E0FB1268FF7402120649850C82850D5C
:10270B0083E06040740212067EE07002A3E0700367
:10271B00EA6031740212067EE07002A3E060647816
:10272B000A1207D5EE2407FCEF3400FD74041206E1
:10273B007EE0FAA3E0FB1268FF7402120649EA700E
:10274B0001EB703F8E828F83A3AA82AB83E0C3958C
:10275B000E5030740412067EE07002A3E060107419
:10276B000412067EE0F8A3E0F5838882E509F08A7F
:10277B00828B83E0F50E740412067EEEF0A3EFF06D
:10278B000226638E828F83E50980F4740412067E21
:10279B00E0FAA3E0FB740A1206497F080206EA740A
:1027AB00016970057A897BF4227A5B7BF52274F8D8
:1027BB0012068AEAFEEBFF90F5A1E07013121516D4
:1027CB00EEFAEFFB121C51E9700C1218941219401F
:1027DB007401F0123A4F7F010206EA74F712068A6F
:1027EB008A828B83121B7FE9F509790012401574DD
:1027FB00036509600C7401650970031218941219B2
:10280B00407E007F00800F7A0A7B00121A39EE247B
:10281B00010EEF3400FFC3EE94F4EF940150091254
:10282B003FBCE9FA8A0860DF74036509600E740126
:10283B006509700512186F8003121985E508700978
:10284B00790112401579018003F079007F020206AD
:10285B00EA74F712068A75080075090078081207E2
:10286B00D512287974021206497F020206EA74F126
:10287B0012068A74FC120633740212067EEAF0A367
:10288B00EBF089088C09741312067EE0FEA3E0FFBF
:10289B00121DA98A0C8B0D750B02121B7FE985107B
:1028AB0082851183F0750A00E50C7002E50D600F4F
:1028BB007901AA0CAB0D121F6BE9FA8A0B600302AC
:1028CB002A2A740212067EE07002A3E060F1E50989
:1028DB00C3941450EAEE7001EF703D850C82850DA8
:1028EB0083A3E0FDAC09740212067EE0FAA3E0FBC1
:1028FB00850C82850D83A3A3A3A3A3A3A3A3A3A347
:10290B00E0F9122C328A088B09AE08AF09EE700180
:10291B00EF70627903022A2CEEA2E0505374FF652C
:10292B0008604DE50C2402F50AE50D3400F50B7833
:10293B000A1207D5850C82850D83A3E0FDAC0974C3
:10294B000412067EE0FAA3E0FB850C82850D83A3BF
:10295B00A3A3A3A3A3A3A3A3A3E0F9122D1D740206
:10296B001206498A088B09AE08AF09750A01809DCA
:10297B007902022A2CEE2403F50EEF3400F50F75C5
:10298B00080475090078081207D5E50C2403FCE54B
:10299B000D3400FDAA0EAB0F1269587402120649D2
:1029AB00740112067EAC82AD83AA0EAB0F123A52A3
:1029BB00EA7001EB600B74038E828F83F0790080D9
:1029CB00607901EEFAEFFB1230B9E9F50B7050E5C7
:1029DB000A604C851082851183E06403600BE06410
:1029EB00017003121894121940121A5DE06403600F
:1029FB000DE06401700512186F8003121985A2AFE8
:102A0B00E492E0FAC2AFE50C2402F582E50D340046
:102A1B00F583E06005E4F0750B0CEAA2E092AFA938
:102A2B000B74041206497F080206EA74F312068A35
:102A3B0074FD120633890AEAFEEBFF8C088D09122E
:102A4B001DA97902EA7001EB60411919121F6BE99C
:102A5B0070397401851082851183F012067EE50AA8
:102A6B00F0750A00750B00780A1207D5780A120761
:102A7B00D578081207D5EEFCEFFD740612067EAA78
:102A8B0082AB83122D927406120649740312064907
:102A9B007F060206EA74F112068A89088A09ECFE9F
:102AAB00EDFF90F5A1E0700B122BE4E970057902B4
:102ABB00022BDFE50812081702080C2B6F2B8D2B4E
:102ACB00982B5A2B4F2B9F2BC82B402BD92A750891
:102ADB00008E828F83E0702FE5097014A3780C129F
:102AEB00052BAA0CAB0DAC0EAD0F123BB8022BDDB8
:102AFB0074016509700BA3AA82AB83123BDC022B1A
:102B0B00DD750802022BDDE0640170F5E509701438
:102B1B00A3780C12052BAA0CAB0DAC0EAD0F123813
:102B2B0030022BDD7401650970D7A3AA82AB831227
:102B3B003854022BDDEEFAEFFBA90912243EE9F51E
:102B4B0008022BDDEEFAEFFBA9091237A780EF7411
:102B5B000165096004E50970A8EEFAEFFBA90912FB
:102B6B00376380DA740365097009EEFAEFFB1235EF
:102B7B009E80CB740265097088EEFAEFFB12362A41
:102B8B0080BCEEFAEFFBA90912369B80B1A90912A2
:102B9B00375280AA740165096003022B0C75080477
:102BAB0075090078081207D512355EEAFCEBFDEECD
:102BBB00FAEFFB1269587402120649801274016510
:102BCB00096003022B0C123563E98E828F83F0753B
:102BDB000800A9087F080206EAC082C083E9120830
:102BEB004D000205F62B0AF62BFA2B7901800279A0
:102BFB0000D083D08222C082C083E490F5A5F0740C
:102C0B002090F5A6F090F5A7EAF0A3EBF01235456E
:102C1B0090F5A3EAF0A3EBF01218D1E990F5A2F02E
:102C2B0060F6D083D0822274F112068A89088A0E4C
:102C3B008B0F8C0A8D09790212247E8A0C8B0DA8BE
:102C4B000CA90DE8FEE9FFE87001E970077A007B3B
:102C5B0000022D18740B250A8E828F83A3A3F0EE2E
:102C6B00240BF8EF3400F988828983E0C2E6F0E0A8
:102C7B0054C04508F090F5A2E0C0E0EE240DF582BB
:102C8B00EF3400F583D0E0F090F5A2E004F0E060C3
:102C9B00F7EE240CFAEF3400FB90F5A5C082C0834D
:102CAB008A828B83E054BFD083D082FCE04C8A8233
:102CBB008B83F0E054F84509F0E0C2E7F0E0C2E3A3
:102CCB00F088828983E0C2E7F0750B00780A12075F
:102CDB00D5AC0EAD0FEE240E0A0AEF3400FB1269D1
:102CEB005874021206497508047509007808120712
:102CFB00D590F5A3E0FCA3E0FDEE2407FAEF34003A
:102D0B00FB1269587402120649EEFAEFFB7F0802B8
:102D1B0006EA74F712068A740912067EE0FEA3E037
:102D2B00FF122C32EA7001EB70067A007B00801EDA
:102D3B00EA240DF582EB3400F583E08E828F83F06D
:102D4B00EA240CF582EB3400F583E0D2E7F07F0246
:102D5B000206EA74F712068A790112247E8A088B1E
:102D6B0009A808A909E8FEE9FFE87001E96013EE7C
:102D7B0024020A0AEF3400FB12177EEEFAEFFB1265
:102D8B002EE77F020206EA74F112068A74FE12061F
:102D9B0033851082851183ECF0A3EDF08A0C8B0D3B
:102DAB00741112067EE0F50AA3E0F50B74151206FA
:102DBB007EE0F50EA3E0F50FE4850A82850B83F028
:102DCB007C0179011225688A088B09AE08AF09EEE0
:102DDB007001EF7003022EDB750800750900850C7E
:102DEB0082850D83E064017015A3E0F9121DA98A99
:102DFB00088B09EA7001EB70057902022EDD8E82D9
:102E0B008F83A3A3E024F5850A82850B83F0E0F57D
:102E1B000A750B00780A1207D5EE240EFCEF34006E
:102E2B00FD740212067EE0FAA3E0FB1269587402ED
:102E3B00120649E5087002E5096033EE2421F5829C
:102E4B00EF3400F583E0850882850983A3A3A3A350
:102E5B00A3A3A3F0EE2422F582EF3400F583E085E3
:102E6B000882850983A3A3A3A3A3A3A3A3F074132D
:102E7B0012067EE07002A3E0602575080475090058
:102E8B0078081207D5EE2407FCEF3400FD741512F9
:102E9B00067EE0FAA3E0FB1269587402120649E5BC
:102EAB000E7002E50F6014EE240CF582EF3400F582
:102EBB0083E05407850E82850F83F08E828F83A368
:102ECB00E0FA7901122520E48E828F83F0F98002DB
:102EDB00790474021206497F080206EA74F312069B
:102EEB008A74FE120633EAFEEBFFEE240BF582EF3B
:102EFB003400F583E0543FF509750A04750B00782F
:102F0B000A1207D590F5A3E0FCA3E0FDEE2407FA27
:102F1B00EF3400FB1268FF7402120649EA7001EBF2
:102F2B007010E48E828F83F074021206497F0602C2
:102F3B0006EAEE240BF582EF3400F583E0A2E640BF
:102F4B00E1E509603EC394075039EE2402FAEF34F1
:102F5B0000FBE509C33324F8F582E434F9F583E08B
:102F6B00F8A3E0F5838882120688E9FA74016A7087
:102F7B0004740180AE74026A70A8EEFAEFFB123192
:102F8B00EC80A5743F6509600EE509C3942040925F
:102F9B00E509C3943F508BEE2403F50AEF3400F59B
:102FAB000B750C04750D00780C1207D5AC0AAD0B24
:102FBB0090F5A3E0FAA3E0FB1268FF740212064936
:102FCB00EA7001EB70057508018003750800E508D0
:102FDB007020743F65097073780C1207D512359900
:102FEB00AD0BAC0A1268FF7402120649EA7001EBD2
:102FFB007059851082851183AC82AD83EE2402FA61
:10300B00EF3400FB121F9DE97003022F2DE50870B2
:10301B0007EEFAEFFB1231EC74018E828F83F09086
:10302B00F5A7E07002A3E07003022F3385108285B1
:10303B001183E0F990F5A7E0F8A3E0F583888212FD
:10304B000688E96003022F2D022F33740112067ECE
:10305B00AC82AD83AA0AAB0B123A52EA7001EB6059
:10306B0036EE2402FAEF3400FB1233DFE960030281
:10307B002F2DEE240BF582EF3400F583E0A2E75001
:10308B0003022F2DEE240CF582EF3400F583E0C202
:10309B00E7F07403022F2EEE240CF582EF3400F5CB
:1030AB0083E0543064206003022F85022F2D74F8C7
:1030BB0012068AEAFEEBFFE9FAEE240CF8EF340075
:1030CB00F990F5A6C082C08388828983E054CFD063
:1030DB0083D082FBE04B88828983F0EAF9EE2402ED
:1030EB00FAEF3400FB1216A1E97004790080027923
:1030FB0009E48E828F83F07F010206EAC082C083CF
:10310B0090F5A5E0F9D083D0822274F712068A7469
:10311B00DF120633E9FEEA240BF582EB3400F5836C
:10312B00E0FF90F5A5C082C08390F5A6C082C08356
:10313B00740A12067EE054CFD083D082FCE04C544C
:10314B00BFD083D082FCE04CC0E0740A12067ED064
:10315B00E0F075080475090078081207D5EA240514
:10316B00FCEB3400FD740312067EAA82AB8312695A
:10317B0058740212064978081207D590F5A3E0FCA3
:10318B00A3E0FD740712067EAA82AB831269587402
:10319B0002120649740912067EE054C04EF0740BFD
:1031AB00851082851183F0EFC0E0740B12067ED080
:1031BB00E0F0740A12067EE05478F0E0440BF074F1
:1031CB000912067EE0543FF0790085108285118349
:1031DB00AA82AB831216A174211206497F02020642
:1031EB00EA74F812068AEAFEEBFFEE240CF582EF86
:1031FB003400F583E05407FA74FF2AFBEA6017E00A
:10320B0054F84BF07A017B00121A397901EEFAEF80
:10321B00FB1230B98006E48E828F83F07F010206A9
:10322B00EA74F312068A74FD1206338A0C8B0D892D
:10323B0008EA2508F8EB3400F9740C28F582E43918
:10324B00F583E0F5097402851082851183F0740112
:10325B0012067EEAF0A3EBF07C02851082851183C7
:10326B00AA82AB8379011225688A0A8B0BA80AA95B
:10327B000BE8FEE9FFE87001E96006EEFAEFFB8070
:10328B006C79021227AA8A0A8B0BAE0AAF0B750850
:10329B0000804F8E828F83E06403703C750A047547
:1032AB000B00780A1207D5E50C2405FCE50D34005C
:1032BB00FDEE2403FAEF3400FB1268FF74021206D2
:1032CB0049EA7001EB7011EE240BF582EF3400F537
:1032DB0083E0543F650960A30508EE2423FEEF3419
:1032EB0000FFE508C3940240AA7A007B0074031226
:1032FB0006497F060206EA74F512068A74DF120687
:10330B0033EAFEEBFFEE240EF582EF3400F583E09B
:10331B00F50890F5A5C082C083740A12067EE054AE
:10332B008FD083D082FAE04A4420C0E0740A1206A0
:10333B007ED0E0F0750A04750B00780A1207D5EE03
:10334B002405FCEF3400FD740312067EAA82AB83C6
:10335B001269587402120649780A1207D5EE240F27
:10336B00FCEF3400FD740712067EAA82AB83126950
:10337B00587402120649740912067EE054C04508BF
:10338B00FAF0740B851082851183F090F5A2E0C0E2
:10339B00E0740B12067ED0E0F090F5A2E004F0741E
:1033AB000A12067EE05471F0E0D2E0F074BF5A448A
:1033BB0080C0E0740912067ED0E0F079008510829F
:1033CB00851183AA82AB831216A174211206497F41
:1033DB00040206EA74F112068A8A0C8B0D8A828B20
:1033EB0083E024F8F50979011227AA8A0A8B0BAE20
:1033FB000AAF0B750800800A0508EE2423FEEF3494
:10340B0000FFE508C3940640030234F48E828F83D9
:10341B00E0640370E385098285820E8E82A3A3E0AC
:10342B00F874F828F874FF3400F9E50E687001E9B8
:10343B0070C6750A04750B00780A1207D5850C82C5
:10344B00850D83A3AC82AD83EE2403FAEF3400FB2E
:10345B001268FF7402120649EA7001EB709A780A3F
:10346B001207D5E50C2405FCE50D3400FDEE240711
:10347B00FAEF3400FB1268FF7402120649EA70017E
:10348B00EB6003023403750A01780A1207D5E50CC9
:10349B002409FCE50D3400FDEE240BFAEF3400FBA0
:1034AB001268FF7402120649EA7001EB60030234E2
:1034BB000374FE250EF50A74FF3400F50B780A121F
:1034CB0007D5E50C240BFCE50D3400FDEE240DFABD
:1034DB00EF3400FB1268FF7402120649EA7001EB2D
:1034EB0060030234037901800279007F080206EA47
:1034FB002279002274F712068A7508047509007880
:10350B00081207D57C007D007AA97BF5126A3F74FF
:10351B000212064990F5B1E0701B78081207D57CB2
:10352B00067DFA7AAD7BF51269587402120649745E
:10353B000190F5B1F07F020206EAC082C08390F5DC
:10354B00B1E060067AAD7BF580047A067BFAD08316
:10355B00D082227A0B7BFA2279022274F712068A26
:10356B00790090F5B1E0702175080489097808128B
:10357B0007D5EAFCEBFD7AAD7BF5126958740212A4
:10358B000649740190F5B1F0F97F020206EA7ABEA2
:10359B007BF92274F512068AEAFEEBFFEE2405F89E
:1035AB00EF3400F988828983E012084D010506C2C9
:1035BB00350103C235C6357D0180027D038E828FB6
:1035CB0083A3A3A3A3E0FC8E828F83A3A3E0FAA320
:1035DB00E0FB88828983E0F9122C328A088B09A9D7
:1035EB0009EA7001E96031750A04750B00780A125B
:1035FB0007D58E828F83E0FCA3E0FDEA24030A0A41
:10360B000AE93400FB12695874021206497901AABF
:10361B0008AB091230B9800279037F040206EA7401
:10362B00F712068A74FD120633E485108285118326
:10363B00F08A828B83A3A3A3A3A3E0C0E07401123F
:10364B00067ED0E0F0EA2406F508EB3400F50978A5
:10365B00081207D58A828B831207EAEA2404F5083D
:10366B00EB3400F50978081207D58A828B83A3A364
:10367B00E0FCA3E0FD740612067EAA82AB83122D3A
:10368B0092740612064974031206497F020206EA77
:10369B0074F512068AEAFEEBFF7508007404697074
:1036AB000912198512186F02374B740569700912CC
:1036BB00189412194002374B74066970398E828F39
:1036CB0083E0F9121DA9EA7001EB70047902807294
:1036DB00750A02750B00780A1207D5EA2407FCEB72
:1036EB003400FD8E828F83A3AA82AB831269587438
:1036FB0002120649804A740769700B121AF1E98E9F
:10370B00828F83F0803A74086960A7740969700529
:10371B00121985802B740A6970238E828F83E012B5
:10372B0008170002D7363F373B3737377902800609
:10373B00790180027900121BC1790080057508029E
:10374B00A9087F040206EA740B69700479018002F0
:10375B007902123AC679002274F712068AEAFEEB56
:10376B00FF750802740169702075080475090078EB
:10377B00081207D5123545EAFCEBFDEEFAEFFB120A
:10378B00695874021206498009E97009123566E915
:10379B006003750800A9087F020206EA74F7120697
:1037AB008AE9FC8A828B83E0F9740E6C60047902DF
:1037BB00801374FF6960F7121DA9EA7001EB60EECC
:1037CB00121D9A79007F020206EA74F512068A909E
:1037DB00F5B2C082C08390F9B2780812052BD08362
:1037EB00D082780812034F701090FA0F78081205E8
:1037FB002B90F5B2780812053A90F5B6EAF0A3EBE8
:10380B00F01218D1E990F5B8F0123875123BB87474
:10381B000190F5BBF0121E5A90F5B9EAF0A3EBF04C
:10382B007F040206EA74F512068A8A088B098C0A51
:10383B008D0B90F9B2780812034F600890F5B278AF
:10384B000812053A7F040206EA74F512068AEA703A
:10385B0001EB601190F5B2780812052B8A828B83ED
:10386B00780812053A7F040206EA7AEF7BBE7CAD3C
:10387B007DDE2274F312068A74F4120633EAFEEB31
:10388B00FF8E828F83E0F874F528F874FF3400F90B
:10389B00C3E89408E99400A2D265D0334018EE2413
:1038AB0013F582EF3400F583E0F508123563E96513
:1038BB00086003023A457904740112067EAC82ADAE
:1038CB0083EE240EFAEF3400FB122365C082C08313
:1038DB0090F5B2780812052BD083D08278081203AA
:1038EB004F6003023A45740112067EAA82AB831223
:1038FB003BDC7904740712067EAC82AD8374011233
:10390B00067EAA82AB831223C4E4C0E0740B1206BA
:10391B007ED0E0F07481C0E0740512067ED0E0F03A
:10392B00EE240DF582EF3400F583E0C0E07406124F
:10393B00067ED0E0F07D017C07740512067EAA821C
:10394B00AB837903122C328A088B09A808A9098842
:10395B000A890BE87001E97003023A45EE2405F57C
:10396B0008EF3400F509750C04750D00780C12077F
:10397B00D5AC08AD09EA24030A0A0AE93400FB12A4
:10398B0069587402120649EE2412F582EF3400F5E1
:10399B0083E06024EEFAEFFB121E5FE9601A90F5EC
:1039AB00B6E07002A3E06010790090F5B6E0F8A3E2
:1039BB00E0F58388821206888E828F83A3A3A3A34C
:1039CB00A3A3A3A3A3A3E0A2E6506685108285114F
:1039DB0083AC82AD83AA08AB09123A52EA7001EBB1
:1039EB00704A90F5B9E0FEA3E0FF8E828F83E0C3AF
:1039FB0094035046780C1207D5AC08AD098E828F14
:103A0B0083E075F005A4F8A9F090F5B9E028FAA3C6
:103A1B00E0398A82F583A3AA82AB831269587402B8
:103A2B001206498E828F83E004F08005E0F9124282
:103A3B00187900AA0AAB0B1230B9740C1206497F25
:103A4B00060206EA79002274F112068A8A0E8B0F9F
:103A5B008C088D0990F5B9E02401FEA3E03400FF3A
:103A6B00750A00800A050AEE2405FEEF3400FF906C
:103A7B00F5B9E0F8A3E0F5838882E0FAE50AC39A8A
:103A8B005030750C04750D00780C1207D5AC0EADCB
:103A9B000FEEFAEFFB1268FF7402120649EA70018F
:103AAB00EB70C2850882850983E50AF0EEFAEFFB1D
:103ABB0080047A007B007F080206EAC082C0837410
:103ACB000169700474018001E490F5BBF0D083D0E0
:103ADB008222C082C083EA240CF8EB3400F98A827C
:103AEB008B83E0FC74F52CFC74FF3400FD74076CC5
:103AFB007001ED7007740188828983F08882898355
:103B0B00E06401700312387ED083D0822274F812E5
:103B1B00068AEAFEEBFF7508007D017C0090F5B884
:103B2B00E0F9122211E9FB7008121AB57508018031
:103B3B001C74016B7005750802801274026B700D9A
:103B4B0090F5BBE06007EEFAEFFB123ADDA9087FB8
:103B5B00010206EA74F512068A90F5BCC082C08396
:103B6B0090F9B2780812052BD083D0827808120313
:103B7B004F701090FA13780812052B90F5BC78084B
:103B8B0012053A1218D1E990F5C3F060F6750801E9
:103B9B0075090078081207D57C007D007AC17BF58A
:103BAB00126A3F74021206497F040206EA74F51288
:103BBB00068A8A088B098C0A8D0B90F9B278081249
:103BCB00034F600890F5BC780812053A7F04020693
:103BDB00EA74F512068AEA7001EB601190F5BC7875
:103BEB000812052B8A828B83780812053A7F040210
:103BFB0006EA74F312068A74FD120633EAFEEBFF33
:103C0B00750A08EE2405F508EF3400F509EE240ECD
:103C1B00F582EF3400F583E0F9AA08AB091222C84C
:103C2B00EA7001EB6006121D9A750A00748285100A
:103C3B0082851183F0EE240DF582EF3400F583E0DD
:103C4B00C0E0740112067ED0E0F0740212067EE52D
:103C5B000AF07D037C03851082851183AA82AB83D6
:103C6B007902122C328A0A8B0BA80AA90BE8FEE9FF
:103C7B00FFE87001E9602A750A04750B00780A12D7
:103C8B0007D5AC08AD09EE24030A0A0AEF3400FB92
:103C9B0012695874021206497900EEFAEFFB1230E2
:103CAB00B974031206497F060206EA74F112068AFA
:103CBB0074F81206338A088B098A828B83E0F874B6
:103CCB00F528F874FF3400F9C3E89409E99400A2CD
:103CDB00D265D033401FEA2414F582EB3400F58310
:103CEB00E0FE123563E96E600C7902740812064926
:103CFB007F080206EA7904E912067EAC82AD83E501
:103D0B0008240EFAE5093400FB122365C082C08338
:103D1B0090F5BC780C12052BD083D082780C120353
:103D2B004F70C6E5082412F582E5093400F583E0EF
:103D3B00F50AE5082405F50EE5093400F50FA90A87
:103D4B00AA0EFB121DEA8A0C8B0DA80CA90DE8FE1E
:103D5B00E9FFE87001E97003023E1174818510825E
:103D6B00851183F0E508240DF582E5093400F58310
:103D7B00E0C0E0740112067ED0E0F08E828F83A348
:103D8B00A3A3A3A3A3A3A3A3E0C0E0740212067E84
:103D9B00D0E0F0123107E9C0E0740312067ED0E0E8
:103DAB00F0850882850983A3A3A3A3A3A3A3A3A33D
:103DBB00A3E05407FA7403C39AFD7C048510828533
:103DCB001183AA82AB837902122C328A088B09A940
:103DDB0009EA7001E9602A750A04750B00780A126A
:103DEB0007D5AC0EAD0FEA24030A0A0AE93400FB2F
:103DFB0012695874021206497900AA08AB091230ED
:103E0B00B97901023CF690F5C0E07003023CF4AACC
:103E1B0008AB09121F038A0C8B0DAE0CAF0DEE70A5
:103E2B0001EF700B121CF18A0C8B0DAE0CAF0DEE6B
:103E3B007001EF60CC750C04750D00780C1207D572
:103E4B00AC0EAD0FEE2403FAEF3400FB126958747D
:103E5B0002120649EEFAEFFB79021220A0E9700973
:103E6B00EEFAEFFB121D9A809890F5C2E0640160A8
:103E7B00EFE0F50C7401250CF0EE240BF582EF341A
:103E8B0000F583E0C0E0E50C24C1F582E434F5F5E0
:103E9B0083D0E0F08E828F83A3A3A3A3A3A3A3A3BA
:103EAB00A3A3E50AF074028E828F83F0A3A882A9E4
:103EBB0083E5082413F582E5093400F583E06440BB
:103ECB00700474018002740388828983F08E828F60
:103EDB0083A3A3A3A3A3A3A3A3A3E0C0E074021291
:103EEB00067ED0E0F0123107E9C0E0740312067EC3
:103EFB00D0E0F07481851082851183F0E508240DE4
:103F0B00F582E5093400F583E0C0E0740112067E0A
:103F1B00D0E0F0850882850983A3A3A3A3A3A3A361
:103F2B00A3A3A3E05407FA7403C39AFD7C04851082
:103F3B0082851183AA82AB837902122C328A088B79
:103F4B0009A909EA7001E96030750A04750B00785C
:103F5B000A1207D5AC0EAD0FEA24030A0A0AE9349C
:103F6B0000FB12695874021206497900AA08AB09C2
:103F7B001230B9E97003023E0C023E6B74F8120664
:103F8B008AEAFEEBFF7D017C0090F5C3E0F912227B
:103F9B0011E9FB7007121AB57901801074016B706F
:103FAB000479028007EEFAEFFB12402C7F01020628
:103FBB00EA74F712068A7900A2AFE492E0FAC2AF74
:103FCB0090F5C2E0603AE014F0EAA2E092AF091279
:103FDB00401590F5C1E0F97C00ECC0E090F5C2E033
:103FEB00FAD0E0C39A501E8C08E50824C1FAE434D9
:103FFB00F5FB8A828B83A3E08A828B83F00C80D9BA
:10400B00EAA2E092AF7F020206EAC082C083E970A7
:10401B00047A0180027A00EA90F5C0F0D083D08256
:10402B002274F812068A7E00EA240CF8EB3400F9AD
:10403B008A828B83E0FC74F52CFC74FF3400FD74D6
:10404B00086C7001ED7007740188828983F0888297
:10405B008983E01208170101804069407D40123CC2
:10406B00B6E9FA90F5C0E0700C74016A60070E0EA9
:10407B008003123BFDEEF97F010206EA74F712068C
:10408B008A1218D1E990F5C7F07508037509007805
:10409B00081207D57C007D007AC47BF5126A3F7449
:1040AB00021206497F020206EA74F712068AEAFE3A
:1040BB00EBFF7D017C0090F5C7E0F9122211E9FBC3
:1040CB007007121AB57901803B74016B7004790289
:1040DB00803275080475090078081207D51235452A
:1040EB00EAFCEBFD8E828F83A3AA82AB831268FF5F
:1040FB007402120649EA7001EB70D3EEFAEFFB1271
:10410B00411479007F020206EAC082C083EA240CC4
:10411B00F582EB3400F583E06401700312412FD07C
:10412B0083D0822274F612068A74FF120633EAFEDB
:10413B00EBFFEE240DF582EF3400F583E0F50A85F5
:10414B001082851183AC82AD83EE2405FAEF340027
:10415B00FB123A52EAF8EBF9EA7001EB70030242F8
:10416B000EE82404F508E93400F509E024C4F582CF
:10417B00E434F5F583E07021850882850983E50A2F
:10418B00F07401C0E0851082851183E024C4F582B0
:10419B00E434F5F583D0E08012AA0A8508828509FC
:1041AB0083E0F912233DE9605AE50AF07902EEFA51
:1041BB00EFFB12322C8A088B09A808A909E87001B9
:1041CB00E9603988828983A3E0FA7901122520E519
:1041DB0008240CF582E5093400F583E054F844011A
:1041EB00F0E508240BF582E5093400F583E0D2E70E
:1041FB00F07900AA08AB091230B98007EEFAEFFB91
:10420B0012330274011206497F030206EA74F71295
:10421B00068AE4C0E0E924C4F582E434F5F583D0E2
:10422B00E0F07F020206EAC082C0831218D1E99047
:10423B00F5C8F0D083D0822274F512068AEAFEEB21
:10424B00FF7D038E828F83E024F5FCEE240CFAEFC6
:10425B003400FB7901122C328A088B09A909EA7008
:10426B0001E9603E750A04750B00780A1207D5EE5A
:10427B002405FCEF3400FDEA24030A0A0AE93400A2
:10428B00FB1269587402120649E508240EF582E503
:10429B00093400F583E0D2E7F07900AA08AB0912E4
:1042AB0030B97F040206EA74F812068AEAFEEBFFC5
:1042BB007D017C0090F5C8E0F9122211E9FA700734
:1042CB00121AB57901801274016A7004790280099F
:1042DB00EEFAEFFB1242E979007F010206EAC08297
:1042EB00C083EA240CF582EB3400F583E0640170A3
:1042FB0003124243D083D0822222790022C082C093
:10430B0083124638E490F5D4F0FB8029EB75F00569
:10431B00A424D5F8E5F034F5F9E488828983F0A379
:10432B00F0A3F088828983A3A3A3F088828983A357
:10433B00A3A3A3F00BEBC3940A40D1D083D082226A
:10434B0074F112068A74FB12063374018510828590
:10435B001183F01243081248997A007BC0124971FD
:10436B0075E54475E402539BFCE59B53E9EF4391E0
:10437B0010D2A8439A01D2B990F410E4F0A3F080C4
:10438B000B90DF3BE06401700375E10290F5D4E024
:10439B00C3940A500690F608E060E675E10490F6C7
:1043AB0008E0700990F5D4E0C39405500B90F4101D
:1043BB00E4F0A374800245857A0080010AEAC39475
:1043CB000A5031EA75F005A424D5F8E5F034F5F977
:1043DB0088828983E060E5A3E0FAA3E0FB74031213
:1043EB00067EEAF0A3EBF088828983A3A3A3E0F512
:1043FB000C750D007A0980011AEA602E75F005A480
:10440B0024D5F8E5F034F5F988828983E060E9A3D7
:10441B00E0FAA3E0FB740112067EEAF0A3EBF0884E
:10442B00828983A3A3A3E0FE7F00750800750900B2
:10443B007C007D007A008015E508250AF508E50962
:10444B003400F509EC24010CED3400FD0AEAC394A9
:10445B000A5033EA75F005A424D5F582E5F034F55E
:10446B00F583E060E7E5822404F582E5833400F50B
:10447B0083E0F50AE0A2E750BFA80AE50828F50893
:10448B00E50934FF80BCA808A909ECFAEDFB12057D
:10449B00B0880EC3E894E7E994FFA2D265D033400D
:1044AB000EC3E8941AE99400A2D265D033400B9066
:1044BB00F410E8F0A37420024585EEC3950CF8EFD9
:1044CB00950DF9E875F0CCA4C8AAF075F00CA42AE8
:1044DB00FA75F0CCE9A42AF9740112067EC082C0E9
:1044EB0083740312067EE0FAA3E0FBD083D082E054
:1044FB00C39AFEA3E09BFFE8C39EFAE99FFBC3EAC6
:10450B009404EB94005036740F5AF990F410E4F0C5
:10451B00A3E9F0C3E5099400A2D265D0335046C39A
:10452B00E49508F8E49509F9ECFAEDFB1205B8E807
:10453B00F404F890F410E048F0A3E08045EEC39843
:10454B00F8EF99F9C3E89404E994005025740F58D7
:10455B00F990F410E4F0A3E9F0C3E5099400A2D2BA
:10456B0065D03340BAA808A909ECFAEDFB1205B8DF
:10457B0080C190F410E4F0A37440F0E485108285C0
:10458B001183F0851082851183E06401600302467C
:10459B001EE490F5D4F0FA8029EA75F005A424D531
:1045AB00F8E5F034F5F9E488828983F0A3F0A3F001
:1045BB0088828983A3A3A3F088828983A3A3A3A35F
:1045CB00F00AEAC3940A40D1E50E90DF08F01248D6
:1045DB00997A007B40124971800B90DF3BE06401BC
:1045EB00700375E10290F5D4E0700690F608E06078
:1045FB00E975E10490F5D4E0601090F5D9E0FAC3C9
:10460B0094FE500FEAC39403400990F410E4F0A316
:10461B007410F0C2A8539AFEC2B975E40075E25546
:10462B0012489974051206497F080206EAC082C037
:10463B008374CA90DF00F074BA90DF01F0740A90B3
:10464B00DF02F0E490DF03F090DF04F090DF05F081
:10465B0090DF06F0741290DF07F0E490DF08F0743F
:10466B002490DF09F0742D90DF0AF0745590DF0B66
:10467B00F0743D90DF0CF0745590DF0DF0741590D5
:10468B00DF0EF0741290DF0FF0741190DF10F074E6
:10469B006090DF11F0740790DF12F0740290DF135B
:1046AB00F0741890DF14F0741D90DF15F0741C90EB
:1046BB00DF16F074C790DF17F0741090DF18F074EA
:1046CB00B290DF19F074B690DF1AF0741090DF1B04
:1046DB00F074EA90DF1CF0742A90DF1DF0E490DF99
:1046EB001EF0741F90DF1FF0E490DF2FF090DF308F
:1046FB00F090DF31F0743190DF24F090DF1CE04458
:10470B0020F0745A90DF2EF075E10475E10190DF13
:10471B003BE0640170F890DF1CE054CFF075E104CE
:10472B00D083D0822274F112068AE5D990F5C9F0B4
:10473B00740190F5D3F07890F9801DA2895019E59A
:10474B00D9C0E0E024C9F582E434F5F583D0E0F07C
:10475B0090F5D3E004F0C289E0C3940A5012E8FA52
:10476B00E9FB74FF2A1874FF3BF9EA7001EB70CB7D
:10477B00E0640A600302483875E104AAE28A828584
:10478B008208E5E3F8E4C8F50990F60FE0FA75F056
:10479B00BDA4CAACF075F02CA42CFB880A880B7452
:1047AB000F78081204AD90FA21780C12052B7808BB
:1047BB00790C120424E5082AF508E5093BF5097C78
:1047CB00017B0180218B82A882E824C9F582E43425
:1047DB00F5F583E0FAE82417F582E434FAF583E083
:1047EB006A60027C000BEBC3940A40D9EC603E90EC
:1047FB00F5D4E075F005A424D5F8E5F034F5F9749B
:10480B000188828983F0A3E508F0A3E509F090F510
:10481B00C9E088828983A3A3A3F090DF38E0888264
:10482B008983A3A3A3A3F090F5D4E004F07F08023F
:10483B0006EAC082C083E5E9FA539BFCE59BEAA23A
:10484B00E7500575E1048014A2E6501075E1049061
:10485B00DF3BE0640170F8E490F5D3F075E900D02C
:10486B0083D08222C082C083C2A8539AFE74FF9069
:10487B00DF06F074C090DF2EF0740190DF02F0754C
:10488B00D95575E103D083D0822275E10422C08211
:10489B00C083E490F607F090F608F090F609F0A3C9
:1048AB00F090F60BF090F60CF0A3F090F60EF09063
:1048BB00F60FF0D083D0822274F712068A7C009018
:1048CB00F60BE0603E53E5BF75DBFF75DAFFE5DB0A
:1048DB00F9E5DAF874FF68700374FF69601375DB30
:1048EB00FF75DAFFE5DBF9E5DAF8EC0CC3940B4066
:1048FB00E3E014F053E40FE5E443E54079017F0274
:10490B000206EA90F60CC3E09406A3E09400405232
:10491B0053E5BF90F60CE024FFA3E034FFF5DB90EA
:10492B00F60CE014F5DAE5DBF9E5DAF8E024FFFA4A
:10493B00A3E034FFFBEA687002EB696017EBF5DB71
:10494B0090F60CE014F5DAE5DBF9E5DAF8EC0CC3DC
:10495B00940B40D890F60CE4F0A3F0740190F60E93
:10496B0080917900809874F112068A53E5BFE49028
:10497B00F607F090F60B800AEA2443FAEB34D3FBEC
:10498B00E004F0C3EA94BDEB942C50EC8A088B093D
:10499B00750A00750B0090FA21780C12052B78081C
:1049AB00790C1203A4740F780812049490F60CE59A
:1049BB0008F0A3E509F01248C353E40FE5E443E51F
:1049CB0040740190F607F07F080206EAC082C083AC
:1049DB0090F609E0F8A3E0F9C3E89AE99B5009EADD
:1049EB00C398F8EB99F9800CE86A7002E96B70EFE9
:1049FB0078FF79FF90F609EAF0A3EBF0E8FAE9FB10
:104A0B00124971D083D08222C082C083740190F688
:104A1B0007F0D083D08222C082C083E490F607F0E7
:104A2B00D083D08222C082C083E490F608F0D0837A
:104A3B00D08222C082C08390F62CE0FA74226A7076
:104A4B001A90F619E0703390F62DE0F8A3E0F99088
:104A5B00F650E8F0A3E9F07402801B74206A70141E
:104A6B0090F619E0701490F6267449F0A374F6F0E2
:104A7B00A3E480E2740490F619F0D083D08222C0B4
:104A8B0082C08390F62CE06421702090F619E070C0
:104A9B002090F6267449F0A374F6F0A3E4F090F698
:104AAB00297407F0A3E4F074018002740490F619E2
:104ABB00F0D083D08222C082C083740490F619F0A8
:104ACB00D083D08222C082C083740490F619F0D0B8
:104ADB0083D08222C082C083740490F619F0D083F5
:104AEB00D08222C082C083740490F619F0D083D098
:104AFB0082222222C082C08390FA25E0F8A3E0F93B
:104B0B0090F610E8F0A3E9F0D083D0822274F8126B
:104B1B00068AE9FCEAFD7A007B00802190F610E022
:104B2B00F8A3E0F5838882E493F890F610E028F878
:104B3B00A3E03400F990F610E8F0A3E9F090F6103A
:104B4B00E0F8A3E0F990FA27E0687003A3E069604E
:104B5B004890F610E02401F8A3E03400F98882892C
:104B6B0083E4936C702B90F610E0FAA3E0FB90F6C5
:104B7B0010E0F8A3E0F5838882E493F890F610E058
:104B8B0028F8A3E03400F990F610E8F0A3E9F080E0
:104B9B0008E4936D7086ED60837F010206EA124A8A
:104BAB00FF7A007901124B182274F712068AE9FE7C
:104BBB00EAFF124AFF800E8A828B83A3A3A3A3A3CF
:104BCB00E4936E60147A007902124B18EA7001EBD1
:104BDB006007EE70E2EF1F70EC7F020206EA74F7DB
:104BEB0012068AEAFEEBFF7A00124BB47A027904C2
:104BFB00124B18EA7001EB60178A828B83A3A3E434
:104C0B00936E70E88A828B83A3A3A3E4936F70DC0B
:104C1B007F020206EA74F712068AE9FE124AFF7A4D
:104C2B00007903124B18EE1E70F57F020206EAC0E4
:104C3B0082C0837A007901124BB48A828B83A3A33F
:104C4B00A3A3A3A3A3E493A2E6500474018001E4FD
:104C5B0090F625F0E490F624F043BE80D2BDD083CD
:104C6B00D08222C082C083740290F612F0E490F6D8
:104C7B0013F090F619F07903124EF9752100752295
:104C8B0000D083D0822274F512068A90DE0EE0FEED
:104C9B00E4F090DE11E0FFA2E4501F7480F0740783
:104CAB0090F619F0E5217002E522600985218285D5
:104CBB002283120688E490F619F0EFA2E25009E481
:104CCB0090DE11F090F619F090F619E0FA74026A82
:104CDB006003024D6790DE16E0F50A90F626120788
:104CEB00E6A90A7A207BDE124F3F74031206498530
:104CFB000A0890F629C3E09508F0A3E09400F09021
:104D0B00F626E0F9A3E0FAA3E0FBE9250AF9EA3479
:104D1B0000FA90F626E9F0A3EAF0A3EBF090F6295F
:104D2B00E07002A3E060047A4080027A48EA90DEE9
:104D3B0011F090F629E07002A3E07016E5217002E5
:104D4B00E5226009852182852283120688E490F68C
:104D5B0019F0EE90DE0EF07F040206EA74066A701C
:104D6B000985218285228312068890F619E060035B
:104D7B00024E6AEFA2E04003024E6A75082B7509DA
:104D8B00F6750A0078081207D179087A207BDE12B3
:104D9B004F3F740312064975210075220090F62BC4
:104DAB00E054E012084D000600C74D20434E402D45
:104DBB004E80024EA04E4EC0384EFA4D90F62CE06F
:104DCB0012084D000501EB4D03E64D05E14D09F0D1
:104DDB004D0BF54DFA4D1252CC80711252C0806CB6
:104DEB001252B480671256CF80621257F7805D74EF
:104DFB000490F619F0805590F62CE012084D000443
:104E0B0000194E061E4E08234E0A284EFA4D12501C
:104E1B00CA80391253258034125686802F12579927
:104E2B00802A7521C175224A124AC1801F7521D073
:104E3B0075224A124AD0801475213E75224A124AB5
:104E4B003E800975218A75224A124A8A90F619E02A
:104E5B00640470047A6080027A40EA90DE11F0906C
:104E6B00F619E0FA74016A70717F0290F629E0F886
:104E7B00A3E0F9C3E89420E994005007E8F50A7F12
:104E8B000A8003750A2090F6261207E6A90A7A20F3
:104E9B007BDE124F797403120649850A0890F626B9
:104EAB00E0F9A3E0FAA3E0FBE92508F9EA3400FAFC
:104EBB0090F626E9F0A3EAF0A3EBF090F629C3E015
:104ECB009508F0A3E09400F0EF90DE11F0E50AC333
:104EDB0094204003024D5D024D4774056A60030246
:104EEB004D5D852182852283120688024D5D74F704
:104EFB0012068A7A008014E9C0E08A08E508241AB1
:104F0B00F582E434F6F583D0E0F00AEAC394054069
:104F1B00E67A008014E9C0E08A08E508241FF582D0
:104F2B00E434F6F583D0E0F00AEAC3940540E67F5B
:104F3B00020206EA74F612068AEAFCEBFDE9FE743D
:104F4B000A12067EE0F508A3E0F509A3E0A908AA7A
:104F5B0009FBEE60148C828D83E012038EE9240131
:104F6B0009EA3400FA1EEE70EC7F030206EA74F6CF
:104F7B0012068AEAFCEBFDE9FE740A12067EE0F5E6
:104F8B0008A3E0F509A3E0A908AA09FBEE60141237
:104F9B0003748C828D83F0E9240109EA3400FA1E34
:104FAB00EE70EC7F030206EA74F712068A75230093
:104FBB007524007525008A268B27EA90DE0BF08A74
:104FCB00088B0974047808120611E50890DE07F0C7
:104FDB008A088B0974097808120611E508543E906B
:104FEB00DE09F0438C10758900C2C5758B00C2E8D1
:104FFB00439A027F020206EAC0E074F1120722E52F
:10500B00BEA2E650FA90DE06E0FAA2E25036A826DF
:10501B00E890DE0BF08526088527097404780812C2
:10502B000611E50890DE07F0852608852709740927
:10503B007808120611E508543E90DE09F090DE0167
:10504B00E0D2E0F07823EA46F608E6F690DE02E0DE
:10505B00F508750900740478081206207823E50812
:10506B0046F608E50946F690DE04E0F508750900FA
:10507B00740978081206207823E6F608E50946F647
:10508B00EAA2E0500375250174065A6003752500EA
:10509B00124AFE758B00C2E87F02020781C0E074E2
:1050AB00F2120722E5BEA2E650FAE589A2E7500507
:1050BB00C2BD125921758900C2C57F0102078174D7
:1050CB00F712068A90F62DE07002A3E0701E90F6A0
:1050DB002FE0F8A3E0F974FF59FBE47001EB700CBF
:1050EB0090F631E064027002A3E060057404025193
:1050FB00BC90F62BE0120817800210510D513D5158
:10510B004D51E86008740490F61902519B90F625F6
:10511B00E0600478018002780090F633E8F0A3E4B5
:10512B00F090F624E0606A90F633E04402F0A3E0DE
:10513B00805E90F612E0640470CB90F633E4F0A33B
:10514B00804EE8547FF50890F612E0640470B6E5E3
:10515B0008C3940650AFE5082412F582E434F6F543
:10516B0083E854806010A3A3A3A3A3A3A3E06403C9
:10517B00701578018013E582240CF582E5833400E9
:10518B00F583E0640360EB780090F633E8F0A3E47A
:10519B00F090F619E06404601C90F6267433F0A3CB
:1051AB0074F6F0A3E4F090F6297402F0A3E4F07423
:1051BB000190F619F07F020206EA74F712068A9044
:1051CB00F631E07002A3E0701290F612E064046016
:1051DB001290F62FE07002A3E06008740490F619A9
:1051EB000252AC90F62BE0541F1208170002E65146
:1051FB0001520952235290F62DE0640160057900AB
:10520B000252AFE990F624F060047905800279062A
:10521B007A00124AFD0252AD90F62FE0547FFA90BD
:10522B00F62DE070D9EAC3940650B0EA90DE0EF08A
:10523B0090F62FE054806032E960047B1080027B93
:10524B0040EB90DE11F0E960047B0380027B00EB06
:10525B00C0E0EA2419F582E434F6F583D0E0F0E9F6
:10526B0060047908803479078030E960047B208002
:10527B00027B80EB90DE14F0E960047B0380027B01
:10528B0000EBC0E0EA241EF582E434F6F583D0E0AF
:10529B00F0E96004790A80027909124AFDE490DE94
:1052AB000EF079017F020206EA79001251C5E9700E
:1052BB0003124ADF2279011251C5E97003124AEE3B
:1052CB0022C082C08390F62FE07002A3E070209082
:1052DB00F631E07002A3E0701690F62DE0F8A3E033
:1052EB00F9748058FA74FF59FBEA7001EB6007748C
:1052FB000490F619801EE890DE00F090F62DE090F9
:10530B00F6126009E06402700C74038007E064031A
:10531B0070037402F0D083D0822274F512068A9047
:10532B00F62DE0FAA3E01208170102D9533E53659C
:10533B0053B053124BA990F626EAF0A3EBF0A374EB
:10534B0080F090F626E0F9A3E0FAA3E0FB120374D9
:10535B0090F629F0A3E4F00254AB7900124BB49011
:10536B00F626EAF0A3EBF0A37480F090F626E0F9B2
:10537B00A3E0FAA3E0FBE924020909EA3400FA12DC
:10538B000374FC90F626E0F9A3E0FAA3E0FBE92412
:10539B0003090909EA3400FA120374F9EC90F629AF
:1053AB00F0A3E980B1EAF9124C2090F626EAF0A3BB
:1053BB00EBF0A37480F090F626E0F9A3E0FAA3E0FB
:1053CB00FB12037490F629F0A3E4F00254AB90F6B1
:1053DB0026E4F0A3F0A3F0FC02547C7509007403DF
:1053EB007808120620AE08AF09EA2EF8EB3FF990C9
:1053FB00F62DE0F508A3E0F50988828983E493AAEA
:10540B00096A706CA3E4936508706590F62FE0F55C
:10541B0008A3E0F50988828983A3A3E493AA096A08
:10542B00704E88828983A3A3A3E493650870418897
:10543B00828983A3A3A3A3E493F508740193F509CD
:10544B0090F626E508F0A3E509F0A37480F090FA36
:10545B0029E02EFAA3E03F8A82F583A3A3A3A3A39B
:10546B00A3E493F8740193F990F629E8F0A3E9F01B
:10547B000C90FA29E0FAA3E0FB8C0890FA2BE0F8E9
:10548B00A3E0F9E8C39AF50AE99BF50B7403780AD4
:10549B00120611C3E508950AE4950B50030253E677
:1054AB0090F626E0FCA3E0FDA3E0FEEC4D4E70066B
:1054BB00740490F619F090F619E06404602590F6E8
:1054CB0031E0FAA3E0FB90F629E0F8A3E0F9C3EA98
:1054DB0098EB99500890F629EAF0A3EBF074019041
:1054EB00F619F07F040206EA74F112068A74FE12B2
:1054FB000633851082851183EAF0A3EBF0851082C9
:10550B00851183E0F8A3E0F5838882A3A3A3A3E42A
:10551B0093602B90FA2DE0FEA3E08007EE2404FEAF
:10552B00EF3400FF8E828F83E493F8740193F98537
:10553B001082851183E0687003A3E06970DE750843
:10554B0000805A749090DE14F07410F08882898376
:10555B00E493540364017003750940750A01750BDC
:10556B0000E50C780A1206208E828F83A3A3A393E7
:10557B00550A6006E509D2E0F509E50990DE15F05C
:10558B00EA90DE13F0E4C0E0E50C241EF582E4346F
:10559B00F6F583D0E0F0E490DE0EF005088510827E
:1055AB00851183E0F8A3E0F5838882A3A3A3A3E48A
:1055BB0093FAE508C39A400302567C7A00790512E8
:1055CB004B188A0A8B0BAC0AAD0BEC7001ED60CB60
:1055DB00EC2402F50EED3400F50F850E82F583E415
:1055EB0093540FF50C90DE0EF07509008C828D83B1
:1055FB00A3A3A3A3E4932407F50AA3E4933400F530
:10560B000B7403780A120611AA0AEC2403F8ED3482
:10561B0000F9850E82850F83E493A2E740030255C0
:10562B004E744890DE11F07408F088828983E493FD
:10563B00540364017003750940750A01750B00E58D
:10564B000C780A1206208E828F83A3A393550A60CF
:10565B0006E509D2E0F509E50990DE12F0EA90DEE5
:10566B0010F0E4C0E0E50C2419F582E434F60255A1
:10567B009C74021206497F080206EAC082C083901E
:10568B00F62DE07002A3E0701690F62FE07002A3E7
:10569B00E0700C90F631E064017002A3E0600474DA
:1056AB0004801890F6267413F0A374F6F0A3E4F0BC
:1056BB0090F6297401F0A3E4F0740190F619F0D080
:1056CB0083D0822274F312068A90F612E064026091
:1056DB001F90F62FE07002A3E0701590F631E0708A
:1056EB0002A3E0700B90F62EE0F9E47001E960097B
:1056FB00740490F619F00257947A007901124AFD5E
:10570B0090F62DE0606E7A00F9124BB48A088B0983
:10571B00EA7001EB6056740490F612F090F62DE0EF
:10572B0090F613F0750A00850882850983A3A3A35D
:10573B00A3E493FAE50AC39A5048850A0CE50C24B6
:10574B0014FEE434F6FFE48E828F83F07A00790442
:10575B00124B188A828B83A3A3A3E493FC8E828FB4
:10576B0083E06C70E71254F3050A80BB740490F667
:10577B0019F0800E90F613F0740390F612F0F912F4
:10578B004EF97A007902124AFD7F060206EA74F698
:10579B0012068A90F612E06404701E90F62BE064F9
:1057AB0081701690F62DE07002A3E0700C90F6312C
:1057BB00E064017002A3E060047404802690F62F6D
:1057CB00E02414F508A3E034F6F50990F626E50875
:1057DB00F0A3E509F0A3E4F090F6297401F0A3E43B
:1057EB00F0740190F619F07F030206EA74F71206C3
:1057FB008A90F612E06404701290F62BE06401704C
:10580B000A90F631E07002A3E06008740490F61978
:10581B00F0805890F62DE0FB90F62FE0FA90F613FF
:10582B00E0F9124BE98A088B09A808A909E8FEE9F7
:10583B00FFE87001E960D490F62FE0FA7903124A81
:10584B00FD90F62DE0C0E090F62FE02414F8A3E0D5
:10585B0034F6F988828983D0E0F0EEFAEFFB12542C
:10586B00F390F62FE0FA7904124AFD7F020206EA62
:10587B00C082C08390F645E07002A3E0600E90F604
:10588B0045E0F8A3E0F5838882120688745390F6FE
:10589B0035F074BE90F636F074FC90F637F0744326
:1058AB0090F638F074BE90F639F0740190F63AF039
:1058BB00747590F63BF0748790F63CF0740190F69B
:1058CB003DF074E590F63EF0742590F63FF0747061
:1058DB0090F640F074F390F641F0742290F642F09B
:1058EB00758900C2C5D2BD90F6437435F0A374F62A
:1058FB00F0758235F58312068890F647E07002A3A7
:10590B00E0600E90F647E0F8A3E0F583888212067C
:10591B0088D083D08222C082C083E490F63AF09084
:10592B00F63BF090F63CF090F63DF0D083D082221F
:10593B0074F512068A8A088B098C0A8D0BE490F693
:10594B0075F090F676F090F677F090F649780812AD
:10595B00053AE490F64DF090F64EF0740890F64F41
:10596B00F090F650E4F0A3F0740190F652F0124C64
:10597B003A7AFF7BFF124FB353F4FDD29143FE02F1
:10598B00120A1F7F040206EAC082C0831259AB9031
:10599B00F652E06006125A5A1259F6D083D0822280
:1059AB00A823E85404600E782374FB56F60874FFA2
:1059BB0056F6124C6EA823E85410600E782374EF41
:1059CB0056F60874FF56F6124C91A823E8A2E05045
:1059DB0019782374FE56F60874FF56F612587B7826
:1059EB002374FD56F60874FF56F62274F612068AD7
:1059FB00120A2290DE0EE090F678F0740490DE0E20
:105A0B00F090DE11E0A2E0403690F677E060307562
:105A1B0008537509F6750A0078081207D190F655E8
:105A2B00E0F97A287BDE124F797403120649E49071
:105A3B00F677F0740490DE0EF0740190DE11F090A6
:105A4B00F678E090DE0EF0120A1F7F030206EA746E
:105A5B00F612068A7E00120A2290DE0EE090F6788D
:105A6B00F0740490DE0EF090DE14E0A2E04003022E
:105A7B005B0990DE16E0FF90DE17E0742090FA31A0
:105A8B00F090F675E0F8EF28F8E43400F9E894218B
:105A9B00E994004002E4F0E02453F508E434F6F511
:105AAB00098E0A78081207D1EFF97A287BDE124F9C
:105ABB003F740312064990F675E02FF0740490DEE4
:105ACB000EF0E490DE14F090F675E0C394024005FE
:105ADB0090F655E0FE8E0874FF2508F874FF34002D
:105AEB00F990F675E0FAC3E89AE99400A2D265D072
